:1000000000308A0019280000223084008313000881
:10001000031918280130F800F701F70B0D28F80B29
:100020000C284A30F700F70B13281628800B0A28F3
:10003000080003081F39830083161F149F141F151F
:100040009F1107309C008313003086000610831236
:10005000061483168610831286100430A100FA302D
:10006000A2000420A10B2F2883160610831206106D
:1000700083168610831286140430A100FA30A20081
:0C0080000420A10B3E28831626286300F4
:02400E00313F40
:00000001FF
;PIC16F877A
;CRC=73BC  CREATED="20-mar.-21 01:25"
