:020000040000FA
:060000008A150A16B02F5C
:063F580000000000000063
:103F60008030831603138600BF308700243098000A
:103F7000083099008312903098004030860030302D
:103F80008400861BC52FC62FC12FAC2F8C1EC12FBE
:103F90001A0880000408303C0319D22F840AB00BA1
:103FA000C12FD82F0008A000800A800A800ACE2FD7
:103FB000313084000008831203178D00840A000842
:103FC0008F0083120317840A00088C00840A0008FB
:103FD0008E0083168C170C1555308D00AA308D007D
:103FE0008C14000000000C1183128D0A8301A003C1
:063FF000A00BE12FB02F31
:043FF600003400345F
:02400E00B23FBF
:00000001FF
